:020000040000fa
:10000000f0ff032019070000e70b0000e90b0000d8
:10001000ed0b0000ef0b0000f10b000000000000f2
:10002000000000000000000000000000e50b0000e0
:10003000eb0b000000000000e50b0000e50b0000ea
:10004000e50b0000e50b0000e50b0000e50b0000f0
:10005000e50b0000e50b0000e50b0000e50b0000e0
:10006000e50b0000e50b0000e50b0000e50b0000d0
:10007000e50b0000e50b0000e50b0000e50b0000c0
:10008000e50b0000e50b0000e50b0000e50b0000b0
:10009000e50b0000e50b0000e50b0000e50b0000a0
:1000a000e50b0000e50b0000e50b0000e50b000090
:1000b000e50b0000e50b0000e50b0000e50b000080
:1000c000e50b0000e50b0000e50b0000e50b000070
:1000d000e50b0000e50b0000e50b0000e50b000060
:1000e000e50b0000e50b0000000000000000000030
:1000f00000000000e50b0000e50b0000e50b000030
:10010000e50b0000e50b0000e50b0000e50b00002f
:10011000e50b0000e50b0000e50b0000e50b00001f
:10012000e50b0000e50b0000e50b0000e50b00000f
:10013000e50b0000e50b0000e50b0000e50b0000ff
:10014000e50b0000e50b0000e50b0000e50b0000ef
:10015000e50b0000e50b0000e50b0000e50b0000df
:10016000e50b0000e50b00008502000085020000a1
:100170008502000085020000e50b0000e50b000091
:10018000e50b0000e50b0000e50b0000e50b0000af
:10019000e50b0000e50b0000e50b0000e50b00009f
:1001a000e50b0000e50b0000e50b0000e50b00008f
:1001b000e50b0000e50b0000e50b0000e50b00007f
:1001c000e50b0000e50b0000e50b0000e50b00006f
:1001d000e50b0000e50b0000e50b0000e50b00005f
:1001e000e50b0000e50b0000e50b0000090b00002b
:1001f000e50b0000e50b0000e50b0000e50b00003f
:10020000e50b0000e50b0000e50b0000e50b00002e
:10021000e50b0000e50b0000e50b0000e50b00001e
:10022000e50b0000e50b0000e50b0000e50b00000e
:10023000e50b0000e50b0000e50b0000e50b0000fe
:10024000e50b0000e50b0000e50b0000e50b0000ee
:10025000e50b0000e50b0000e50b0000e50b0000de
:04026000e50b0000aa
:020000040000fa
:10026400f8b500bff8bc08bc9e467047650a00009c
:10027400f8b500bff8bc08bc9e467047410a0000b0
:020000040000fa
:1002840008b5634b9b7da3b1614b5b8b13f0020fed
:1002940010d002225f4b1a775e4b1b7f5bb2b3f127
:1002a400ff3f00f098805b4b1b7f5bb2052b00f097
:1002b400a08008bd564b5b8b13f0010f05d0554b46
:1002c400ff221a7702225a77e6e7514b5b8b13f031
:1002d400040f05d04f4bff221a7701225a77dbe730
:1002e4004c4b1b7f5bb2013b032bd5d8dfe803f0fb
:1002f40011025720474bdb682bb10021454b18886e
:1003040000f092fac8e70121424b188800f08cfaf9
:10031400c2e7404b1b881b0a5b0043f0f1033c4ad5
:100324005362d369002bfcd103223a4b1a77b3e70b
:10033400384a5369d268934208d0364a5168581ce7
:100344005061ca5c324b83f82820a5e7314b1b6906
:100354005bb92f4a536843f440335360d369002b8d
:10036400fcd105222b4b1a7796e72a4b1b887f2b4f
:100374000cd90121274a11778b4043f40043244ac6
:100384005362234ad369002bfcd185e70321214a18
:1003940011775b0043f001031d4a5362f1e71d4ae4
:1003a4001369013b92699a4209d01a4b99689a6978
:1003b400501c9861164b93f828308b546ce7144a00
:1003c400536843f4e0235360d369002bfcd1052226
:1003d400104b1a77e9e70f4b00221a7783210c4a56
:1003e40011761b6a002b3ff464af0a4a506a98479f
:1003f40008bd084b00221a775a778321044a1176e4
:100404001b6a002b3ff455af024a506a984750e7e5
:08041400000c00430800002069
:020000040000fa
:10041c00f0b585b002238df80f3000248df80e4016
:10042c00204600f095fb2146534800f0cffb00f02e
:10043c00adfb524d524f534e12e0042410e00624f3
:10044c000ee00df10f01504800f0b4fb00238df8c5
:10045c000f3001220df10e01562000f023fb012478
:10046c002b780bb100232b70092cf9d801a353f86e
:10047c0024f000bf4f040000a9040000d5040000c4
:10048c00030500002b050000450500005f0500007a
:10049c006d0400006f050000790500009df80f3019
:1004ac00dbb2012b06d09df80f40e4b2023c18bf22
:1004bc000124d5e700238df80f3006223146562053
:1004cc0000f0f0fa0224cbe79df80f30dbb2012be1
:1004dc0006d09df80f30dbb2022b08bf0924bfe712
:1004ec0000238df80f3001220df10e01562000f083
:1004fc00d9fa0324b4e79df80f30dbb2012b9cd062
:10050c009df80f30dbb2022baad100238df80f30ef
:10051c0001220df10e01562000f0c4faa0e70023d1
:10052c008df80f3004230093184b022231465620cd
:10053c0000f0cefa052493e79df80f30dbb2012bc7
:10054c003ff47daf9df80f30dbb2022b08bf0924be
:10055c0086e7b4780d4b1b789c4214bf0924082401
:10056c007ee74ff48023c7f8143179e74ff48023ea
:10057c00c7f8183174e700bf350b0000520000209b
:10058c00008000414c0000207d0b00005400002036
:020000040000fa
:10059c0042f20e22534b9a821a46d36813f0010f83
:1005ac00fbd000224f4b1a744f4a03f50063da62fa
:1005bc001a46536813f0200ffbd143224b4bc3f860
:1005cc0080201a46d2f8803013f0400ffad0484af7
:1005dc00484b9a621a4692f82c3013f0100ffad14d
:1005ec000122444b83f820201a4692f82c3013f049
:1005fc00040ffad102223f4b1a771a4692f82c308c
:10060c0013f0020ffad13b4a136913f4807ffbd02d
:10061c00394a364b1a631a46536813f0400ffbd114
:10062c004422324bc3f884201a46d2f8843013f09b
:10063c00400ffad02f4b00229a63304a5a631a4665
:10064c00d36b13f0040ffbd102222a4b83f830201a
:10065c001a46d36b13f0020ffbd1264a136c03f02e
:10066c000303032bfad1264a204b1a621a4653680d
:10067c0013f0040ffbd1224a1c4b5a621a465368e2
:10068c0013f0080ffbd11f4a184b9a621a46536895
:10069c0013f0100ffbd102221b4b5a711a46d37860
:1006ac0013f0010ffbd04122104bc3f8a4201a46c3
:1006bc00d2f8a43013f0400ffad041220b4bc3f800
:1006cc0014211a46d2f8143113f0400ffad00e4b05
:1006dc006ff07f421a614cf2ff725a6108221a6263
:1006ec00704700bf0014004004010100001c0040d2
:1006fc00c40401040010004006012800c7000300d8
:0c070c000701010007091e000008004062
:020000040000fa
:1007180008b51c4b03b198471b4b03b19847eff33f
:10072800108172b6194ad2f8883043f47003c2f8bf
:100738008830bff34f8fbff36f8f01b962b600f0f7
:1007480031f8124a124b23f07f039360114b9847fc
:10075800114a936823f0010393601346da6812f094
:10076800010ffbd10c4b5a6842f004025a60012277
:100778009a600a4b03b19847094b03b19847fff7b2
:1007880049fefee7000000000000000000ed00e068
:1007980000000000b50900000060004100000000f2
:0407a800000000004d
:020000040000fa
:1007ac001c4b1d4a934230b438bf002103d203f8ce
:1007bc00011b9342fbd1194800250168c1b942685d
:1007cc0032b383680c30d3b10139034613f8014bb3
:1007dc0001f8014f1c1a9442f8d312f0030318bf0e
:1007ec00012303eb920200eb820001680029e6d0a2
:1007fc00846842680b460c303cb9002addd01a44a0
:10080c0003f8015b9a42fbd1d7e7002adcd1e4e77d
:10081c0030bc70470000002008000020a008000039
:020000040000fa
:10082c001a4b00225a619a61194b83221a765a6824
:10083c0022f480225a601a46d369002bfcd1002284
:10084c00124b5a777f2810d959b101221a774000e0
:10085c0040f400400e4b58620d4ad369002bfcd17a
:10086c0070470422094b1a77f1e741b10322074b79
:10087c001a77400040f00100054b5862ece7042267
:10088c00024b1a774000024b5862e5e70800002043
:04089c00000c004309
:020000040000fa
:1008a000300000201c0000000000000008000020b4
:1008b000280000000000000052000020010000009d
:1008c00000000000540000200400000000000000b0
:1008d0005800002004000000000000004c00002030
:1008e000060000000100000000004d4348500000d9
:1008f00000000020080000000000000000000000d0
:10090000000000002222222222222222222222224f
:020000040000fa
:10091000134ad36823f4e0631b041b0c43f0bf634a
:1009200043f40133d360bff35f8f62b60d4be02217
:1009300083f84a234ff48061996083f84b234ff486
:100940000061996083f84c234ff48050986083f8dd
:100950004d234ff40050986083f86b23d9607047a3
:0809600000ed00e000e100e001
:020000040000fa
:100968004ff480720e4b5a601a46d369002bfcd1a3
:100978000b4b3822da600b4a1a601a46d369002bef
:10098800fcd11022064b5a831a46d369002bfcd19e
:10099800054b00225a771a778322014b9a757047c4
:0c09a800000c00431600100108000020a5
:020000040000fa
:1009b40070b50d4e0d4ca41ba4100025a54209d101
:1009c4000b4e0c4cfff74cfca41ba4100025a542b5
:1009d40005d170bd56f8253098470135eee756f835
:1009e400253098470135f2e77002000070020000dc
:0809f400700200007402000013
:020000040000fa
:1009fc0001220e4b1a601a46136913f0010ffbd13a
:100a0c000a4b4ff4e3621a6003221a7344f649420c
:100a1c00da6133229a720021054a116001225a725e
:100a2c001a461369002bfcd1704700bf00380040f8
:040a3c000000002096
:020000040000fa
:100a400010b5054c227832b9044b13b10448aff30a
:100a500000800123237010bd300000200000000042
:100a60000000000008b5034b1bb103490348aff376
:100a7000008008bd000000003400002000000000dd
:020000040000fa
:100a80000a4b012283f8d0200c2183f8b8104ff4d0
:100a90008021c3f80011c3f8101183f8c82183f82e
:100aa000c921222283f8b421704700bf0080004191
:020000040000fa
:100ab000094b1b7f5bb20bb10020704710b50c4691
:100ac000054b18800021996019615c60da605977e4
:0c0ad000fff7acfe012010bd0800002064
:020000040000fa
:100adc0010b5094c247f64b20cb1002010bd064c3b
:100aec002080a360029b23616160e260002161773a
:0c0afc00fff796fe012010bd080000204e
:020000040000fa
:100b080008b5084b5b7a63b1064a937a3321917230
:100b180003f0ff002bb1044b1b6813b1024a516864
:0c0b2800984708bd003800400000002085
:020000040000fa
:100b3400074b1b68092b06dd0022054b1a600122b6
:100b4400044b1a7070470133014a1360704700bfa9
:080b54005800002052000020af
:020000040000fa
:100b5c0008b500f027f8fff78dfffff719fd00f03f
:100b6c0014f8fff7fbfefff743fffff7cbfe08bdc2
:020000040000fa
:100b7c0010b5044600f024f818b92cb101232370e9
:0a0b8c0010bd0cb10223237010bd50
:020000040000fa
:020b96007047a6
:020000040000fa
:100b9800044a136843f002031360136913f0020f49
:080ba800fbd17047003800404a
:020000040000fa
:100bb0004ff44172014b1a80704700bf0040004162
:020000040000fa
:0c0bc000014b18625962704708000020c9
:020000040000fa
:0c0bcc00014b587f704700bf080000205c
:020000040000fa
:0c0bd800014b18605960704700000020bd
:020000040000fa
:020be400fee72a
:020000040000fa
:020be600fee728
:020000040000fa
:020be800fee726
:020000040000fa
:020bea00fee724
:020000040000fa
:020bec00fee722
:020000040000fa
:020bee00fee720
:020000040000fa
:020bf000fee71e
:020000040000fa
:0200000400807a
:044000003912003c35
:020000040000fa
:0200000400807a
:044004008000a82a66
:020000040000fa
:0200000400807a
:04400800ffffffffb8
:00000001FF
