:020000040000fa
:10000000f0ff0320e90300003d0700003f07000068
:1000100043070000450700004707000000000000fc
:100020000000000000000000000000003b0700008e
:1000300041070000000000003b0700003b070000f4
:100040003b0700003b0700003b0700003b070000a8
:100050003b0700003b0700003b0700003b07000098
:100060003b0700003b0700003b0700003b07000088
:100070003b0700003b0700003b0700003b07000078
:100080003b0700003b0700003b0700003b07000068
:100090003b0700003b0700003b0700003b07000058
:1000a0003b0700003b0700003b0700003b07000048
:1000b0003b0700003b0700003b0700003b07000038
:1000c0003b0700003b0700003b0700003b07000028
:1000d0003b0700003b0700003b0700003b07000018
:1000e0003b0700003b07000000000000000000008c
:1000f000000000003b0700003b0700003b0700003a
:100100003b0700003b0700003b0700003b070000e7
:100110003b0700003b0700003b0700003b070000d7
:100120003b0700003b0700003b0700003b070000c7
:100130003b0700003b0700003b0700003b070000b7
:100140003b0700003b0700003b0700003b070000a7
:100150003b0700003b0700003b0700003b07000097
:100160003b0700003b0700003b0700003b07000087
:100170003b0700003b0700003b0700003b07000077
:100180003b0700003b0700003b0700003b07000067
:100190003b0700003b0700003b0700003b07000057
:1001a0003b0700003b0700003b0700003b07000047
:1001b0003b0700003b0700003b0700003b07000037
:1001c0003b0700003b0700003b0700003b07000027
:1001d0003b0700003b0700003b0700003b07000017
:1001e0003b0700003b0700003b07000075060000ce
:1001f0003b0700003b0700003b0700003b070000f7
:100200003b0700003b0700003b0700003b070000e6
:100210003b0700003b0700003b0700003b070000d6
:100220003b0700003b0700003b0700003b070000c6
:100230003b0700003b0700003b0700003b070000b6
:100240003b0700003b0700003b0700003b070000a6
:100250003b0700003b0700003b0700003b07000096
:040260003b07000058
:020000040000fa
:10026400f8b500bff8bc08bc9e467047ad05000059
:10027400f8b500bff8bc08bc9e467047890500006d
:020000040000fa
:1002840042f20e224d4b9a821a46d36813f0010fa4
:10029400fbd00022494b1a74494a03f50063da6221
:1002a4001a46536813f0200ffbd14322454bc3f881
:1002b40080201a46d2f8803013f0400ffad0424a18
:1002c400424b9a621a4692f82c3013f0100ffad16e
:1002d40001223e4b83f820201a4692f82c3013f06a
:1002e400040ffad10222394b1a771a4692f82c30ad
:1002f40013f0020ffad1354a136913f4807ffbd04f
:10030400334a304b1a631a46536813f0400ffbd13b
:1003140044222c4bc3f884201a46d2f8843013f0bc
:10032400400ffad0294b00229a632a4a5a631a468c
:10033400d36b13f0040ffbd10222244b83f830203b
:100344001a46d36b13f0020ffbd1204a136c03f04f
:100354000303032bfad1204a1a4b1a621a46536834
:1003640013f0040ffbd11c4a164b5a621a46536809
:1003740013f0080ffbd1194a124b9a621a465368bc
:1003840013f0100ffbd10222154b5a711a46d37881
:1003940013f0010ffbd041220a4bc3f8a4201a46e4
:1003a400d2f8a43013f0400ffad00d4b6ff07f4217
:1003b4001a614cf2ff725a61704700bf001400408a
:1003c40004010100001c0040c404010400100040aa
:1003d40006012800c70003000701010007091e00e9
:0403e40000080040cd
:020000040000fa
:1003e80008b51c4b03b198471b4b03b19847eff373
:1003f800108172b6194ad2f8883043f47003c2f8f3
:100408008830bff34f8fbff36f8f01b962b600f02a
:1004180031f8124a124b23f07f039360114b98472f
:10042800114a936823f0010393601346da6812f0c7
:10043800010ffbd10c4b5a6842f004025a600122aa
:100448009a600a4b03b19847094b03b1984700f0eb
:10045800d7f8fee7000000000000000000ed00e013
:1004680000000000fd0400000060004100000000e2
:040478000000000080
:020000040000fa
:10047c001c4b1d4a934230b438bf002103d203f801
:10048c00011b9342fbd1194800250168c1b9426890
:10049c0032b383680c30d3b10139034613f8014be6
:1004ac0001f8014f1c1a9442f8d312f0030318bf41
:1004bc00012303eb920200eb820001680029e6d0d5
:1004cc00846842680b460c303cb9002addd01a44d3
:1004dc0003f8015b9a42fbd1d7e7002adcd1e4e7b1
:1004ec0030bc70470000002008000020c805000048
:020000040000fa
:1004fc0070b50d4e0d4ca41ba4100025a54209d1be
:10050c000b4e0c4cfff7a8fea41ba4100025a54213
:10051c0005d170bd56f8253098470135eee756f8f1
:10052c00253098470135f2e7700200007002000098
:08053c007002000074020000cf
:020000040000fa
:1005440001220e4b1a601a46136913f0010ffbd1f6
:100554000a4b4ff4e3621a6003221a7344f64942c9
:10056400da6133229a720021054a116001225a721b
:100574001a461369002bfcd1704700bf00380040b5
:040584000000002053
:020000040000fa
:1005880010b5054c227832b9044b13b10448aff3c7
:1005980000800123237010bd080000200000000027
:1005a8000000000008b5034b1bb103490348aff333
:1005b800008008bd000000000c00002000000000c2
:020000040000fa
:1005c800080000201c0000000000000000000020bf
:1005d80008000000000000002800002001000000c2
:1005e80000000000240000200400000000000000bb
:1005f80000000000000000002222222222222222e3
:020000040000fa
:1006080008b5002000f06cf80021084800f08af8ce
:1006180000f074f8064a002406484ff48021137845
:10062800002bfcd01470c0f81c11f8e7a1060000dc
:080638002800002000800041b1
:020000040000fa
:100640000a4ad36823f4e0631b041b0c43f0bf6326
:1006500043f40133d360bff35f8f62b6044be022f3
:1006600083f86b234ff40062da60704700ed00e01e
:0406700000e100e0c5
:020000040000fa
:1006740008b5084b5b7a63b1064a937a33219172c9
:1006840003f0ff002bb1044b1b6813b1024a5168fd
:0c069400984708bd00380040000000201e
:020000040000fa
:1006a000074b1b68092b06dd0022054b1a6001224f
:1006b000044b1a7070470133014a1360704700bf42
:0806c0002400002028000020a6
:020000040000fa
:1006c800064b012283f8d0200c2283f8b8204ff47f
:1006d8008022c3f80021c3f8102170470080004130
:020000040000fa
:1006e80008b500f017f8fff7ebfffff7c7fd00f0bc
:0c06f8001ff8fff723fffff79fff08bd6e
:020000040000fa
:10070400044a136843f002031360136913f0020fe1
:08071400fbd1704700380040e2
:020000040000fa
:10071c004ff44172014b1a80704700bf00400041fa
:020000040000fa
:0c072c00014b186059607047000000206d
:020000040000fa
:02073800704708
:020000040000fa
:02073a00fee7d8
:020000040000fa
:02073c00fee7d6
:020000040000fa
:02073e00fee7d4
:020000040000fa
:02074000fee7d2
:020000040000fa
:02074200fee7d0
:020000040000fa
:02074400fee7ce
:020000040000fa
:02074600fee7cc
:020000040000fa
:0200000400807a
:044000003912003c35
:020000040000fa
:0200000400807a
:044004008000a82a66
:020000040000fa
:0200000400807a
:04400800ffffffffb8
:00000001FF
